{
  "contractName": "Drone",
  "abi": [
    {
      "constant": true,
      "inputs": [
        {
          "name": "",
          "type": "address"
        }
      ],
      "name": "idToDrone",
      "outputs": [
        {
          "name": "parent1",
          "type": "address"
        },
        {
          "name": "parent2",
          "type": "address"
        },
        {
          "name": "dna",
          "type": "bytes32"
        }
      ],
      "payable": false,
      "stateMutability": "view",
      "type": "function"
    },
    {
      "inputs": [
        {
          "name": "_WorldContract",
          "type": "address"
        }
      ],
      "payable": false,
      "stateMutability": "nonpayable",
      "type": "constructor"
    },
    {
      "anonymous": false,
      "inputs": [
        {
          "indexed": true,
          "name": "drone",
          "type": "address"
        },
        {
          "indexed": false,
          "name": "parent1",
          "type": "address"
        },
        {
          "indexed": false,
          "name": "parent2",
          "type": "address"
        },
        {
          "indexed": false,
          "name": "dna",
          "type": "bytes32"
        }
      ],
      "name": "NewDrone",
      "type": "event"
    },
    {
      "anonymous": false,
      "inputs": [
        {
          "indexed": true,
          "name": "drone",
          "type": "address"
        }
      ],
      "name": "DroneDies",
      "type": "event"
    },
    {
      "constant": false,
      "inputs": [
        {
          "name": "_parent1",
          "type": "address"
        },
        {
          "name": "_parent2",
          "type": "address"
        },
        {
          "name": "_dna",
          "type": "bytes32"
        }
      ],
      "name": "createDrone",
      "outputs": [],
      "payable": false,
      "stateMutability": "nonpayable",
      "type": "function"
    },
    {
      "constant": false,
      "inputs": [],
      "name": "killDrone",
      "outputs": [],
      "payable": false,
      "stateMutability": "nonpayable",
      "type": "function"
    },
    {
      "constant": true,
      "inputs": [
        {
          "name": "_drone",
          "type": "address"
        }
      ],
      "name": "getParent1",
      "outputs": [
        {
          "name": "",
          "type": "address"
        }
      ],
      "payable": false,
      "stateMutability": "view",
      "type": "function"
    },
    {
      "constant": true,
      "inputs": [
        {
          "name": "_drone",
          "type": "address"
        }
      ],
      "name": "getParent2",
      "outputs": [
        {
          "name": "",
          "type": "address"
        }
      ],
      "payable": false,
      "stateMutability": "view",
      "type": "function"
    },
    {
      "constant": true,
      "inputs": [
        {
          "name": "_drone",
          "type": "address"
        }
      ],
      "name": "getDna",
      "outputs": [
        {
          "name": "",
          "type": "bytes32"
        }
      ],
      "payable": false,
      "stateMutability": "view",
      "type": "function"
    }
  ],
  "bytecode": "0x608060405234801561001057600080fd5b506040516020806108668339810180604052602081101561003057600080fd5b8101908080519060200190929190505050806000806101000a81548173ffffffffffffffffffffffffffffffffffffffff021916908373ffffffffffffffffffffffffffffffffffffffff160217905550506107d5806100916000396000f3fe608060405260043610610078576000357c0100000000000000000000000000000000000000000000000000000000900463ffffffff16806346a667831461007d57806388092237146101485780638e93baeb1461015f5780639f7258a9146101c4578063d967617e14610255578063f2971070146102d0575b600080fd5b34801561008957600080fd5b506100cc600480360360208110156100a057600080fd5b81019080803573ffffffffffffffffffffffffffffffffffffffff169060200190929190505050610361565b604051808473ffffffffffffffffffffffffffffffffffffffff1673ffffffffffffffffffffffffffffffffffffffff1681526020018373ffffffffffffffffffffffffffffffffffffffff1673ffffffffffffffffffffffffffffffffffffffff168152602001828152602001935050505060405180910390f35b34801561015457600080fd5b5061015d6103cb565b005b34801561016b57600080fd5b506101ae6004803603602081101561018257600080fd5b81019080803573ffffffffffffffffffffffffffffffffffffffff1690602001909291905050506104a8565b6040518082815260200191505060405180910390f35b3480156101d057600080fd5b50610213600480360360208110156101e757600080fd5b81019080803573ffffffffffffffffffffffffffffffffffffffff1690602001909291905050506104f4565b604051808273ffffffffffffffffffffffffffffffffffffffff1673ffffffffffffffffffffffffffffffffffffffff16815260200191505060405180910390f35b34801561026157600080fd5b506102ce6004803603606081101561027857600080fd5b81019080803573ffffffffffffffffffffffffffffffffffffffff169060200190929190803573ffffffffffffffffffffffffffffffffffffffff16906020019092919080359060200190929190505050610560565b005b3480156102dc57600080fd5b5061031f600480360360208110156102f357600080fd5b81019080803573ffffffffffffffffffffffffffffffffffffffff16906020019092919050505061073d565b604051808273ffffffffffffffffffffffffffffffffffffffff1673ffffffffffffffffffffffffffffffffffffffff16815260200191505060405180910390f35b60056020528060005260406000206000915090508060000160009054906101000a900473ffffffffffffffffffffffffffffffffffffffff16908060010160009054906101000a900473ffffffffffffffffffffffffffffffffffffffff16908060020154905083565b600560003373ffffffffffffffffffffffffffffffffffffffff1673ffffffffffffffffffffffffffffffffffffffff168152602001908152602001600020600080820160006101000a81549073ffffffffffffffffffffffffffffffffffffffff02191690556001820160006101000a81549073ffffffffffffffffffffffffffffffffffffffff0219169055600282016000905550503373ffffffffffffffffffffffffffffffffffffffff167fe4747e46c7c1968ba3b3bd70e5ff25a7711b5c03e52efc15f4823d21e04d05cf60405160405180910390a2565b6000600560008373ffffffffffffffffffffffffffffffffffffffff1673ffffffffffffffffffffffffffffffffffffffff168152602001908152602001600020600201549050919050565b6000600560008373ffffffffffffffffffffffffffffffffffffffff1673ffffffffffffffffffffffffffffffffffffffff16815260200190815260200160002060000160009054906101000a900473ffffffffffffffffffffffffffffffffffffffff169050919050565b6060604051908101604052808473ffffffffffffffffffffffffffffffffffffffff1681526020018373ffffffffffffffffffffffffffffffffffffffff16815260200182815250600560003373ffffffffffffffffffffffffffffffffffffffff1673ffffffffffffffffffffffffffffffffffffffff16815260200190815260200160002060008201518160000160006101000a81548173ffffffffffffffffffffffffffffffffffffffff021916908373ffffffffffffffffffffffffffffffffffffffff16021790555060208201518160010160006101000a81548173ffffffffffffffffffffffffffffffffffffffff021916908373ffffffffffffffffffffffffffffffffffffffff160217905550604082015181600201559050503373ffffffffffffffffffffffffffffffffffffffff167f849e62c2bcda8ed68365a5d9b267825031466a81ac89a709f86194249dcb9caa848484604051808473ffffffffffffffffffffffffffffffffffffffff1673ffffffffffffffffffffffffffffffffffffffff1681526020018373ffffffffffffffffffffffffffffffffffffffff1673ffffffffffffffffffffffffffffffffffffffff168152602001828152602001935050505060405180910390a2505050565b6000600560008373ffffffffffffffffffffffffffffffffffffffff1673ffffffffffffffffffffffffffffffffffffffff16815260200190815260200160002060010160009054906101000a900473ffffffffffffffffffffffffffffffffffffffff16905091905056fea165627a7a7230582086fe336787fc681b4b95f072b78b9557b8ab5508324e2817687d7760517bb32a0029",
  "source": "pragma solidity ^0.5.0;\n\ncontract Drone{\n\n    address WorldContract;\n    address parent1;\n    address parent2;\n    bytes32[] dna;\n    uint fitness;\n\n    event NewDrone(address indexed drone, address parent1, address parent2, bytes32 dna);\n    event DroneDies(address indexed drone);\n\n    struct DroneStruct{\n        address parent1;\n        address parent2;\n        bytes32 dna;\n    }\n    mapping(address => DroneStruct) public idToDrone;\n\n\n    constructor(address _WorldContract) public {\n        WorldContract = _WorldContract;\n    }\n\n    function createDrone(address _parent1, address _parent2, bytes32 _dna) public {\n        idToDrone[msg.sender] = DroneStruct(_parent1, _parent2, _dna);\n        emit NewDrone(msg.sender, _parent1, _parent2, _dna);\n    }\n    \n    function killDrone() public {\n        delete idToDrone[msg.sender];\n        emit DroneDies(msg.sender);\n    }\n\n    function getParent1(address _drone) public view returns(address){\n        return idToDrone[_drone].parent1;\n    }\n\n    function getParent2(address _drone) public view returns(address){\n        return idToDrone[_drone].parent2;\n    }\n\n    function getDna(address _drone) public view returns(bytes32){\n        return idToDrone[_drone].dna;\n    }\n}",
  "sourcePath": "/home/axel/Documents/work/Kryha/odyssey/backend/ethereum/contracts/Drone.sol",
  "compiler": {
    "name": "solc",
    "version": "0.5.0+commit.1d4f565a.Emscripten.clang"
  },
  "schemaVersion": "3.0.6",
  "updatedAt": "2019-04-12T18:44:09.917Z",
  "devdoc": {
    "methods": {}
  },
  "userdoc": {
    "methods": {}
  }
}