{
  "contractName": "Drone",
  "abi": [
    {
      "constant": true,
      "inputs": [
        {
          "name": "",
          "type": "address"
        }
      ],
      "name": "idToDrone",
      "outputs": [
        {
          "name": "parent1",
          "type": "address"
        },
        {
          "name": "parent2",
          "type": "address"
        }
      ],
      "payable": false,
      "stateMutability": "view",
      "type": "function"
    },
    {
      "inputs": [
        {
          "name": "_WorldContract",
          "type": "address"
        }
      ],
      "payable": false,
      "stateMutability": "nonpayable",
      "type": "constructor"
    },
    {
      "anonymous": false,
      "inputs": [
        {
          "indexed": true,
          "name": "drone",
          "type": "address"
        },
        {
          "indexed": false,
          "name": "parent1",
          "type": "address"
        },
        {
          "indexed": false,
          "name": "parent2",
          "type": "address"
        },
        {
          "indexed": false,
          "name": "dna",
          "type": "bytes32[]"
        }
      ],
      "name": "NewDrone",
      "type": "event"
    },
    {
      "anonymous": false,
      "inputs": [
        {
          "indexed": true,
          "name": "drone",
          "type": "address"
        }
      ],
      "name": "DroneDies",
      "type": "event"
    },
    {
      "constant": false,
      "inputs": [
        {
          "name": "_parent1",
          "type": "address"
        },
        {
          "name": "_parent2",
          "type": "address"
        },
        {
          "name": "_dna",
          "type": "bytes32[]"
        }
      ],
      "name": "createDrone",
      "outputs": [],
      "payable": false,
      "stateMutability": "nonpayable",
      "type": "function"
    },
    {
      "constant": false,
      "inputs": [],
      "name": "killDrone",
      "outputs": [],
      "payable": false,
      "stateMutability": "nonpayable",
      "type": "function"
    },
    {
      "constant": true,
      "inputs": [
        {
          "name": "_drone",
          "type": "address"
        }
      ],
      "name": "getParent1",
      "outputs": [
        {
          "name": "",
          "type": "address"
        }
      ],
      "payable": false,
      "stateMutability": "view",
      "type": "function"
    },
    {
      "constant": true,
      "inputs": [
        {
          "name": "_drone",
          "type": "address"
        }
      ],
      "name": "getParent2",
      "outputs": [
        {
          "name": "",
          "type": "address"
        }
      ],
      "payable": false,
      "stateMutability": "view",
      "type": "function"
    },
    {
      "constant": true,
      "inputs": [
        {
          "name": "_drone",
          "type": "address"
        }
      ],
      "name": "getDna",
      "outputs": [
        {
          "name": "",
          "type": "bytes32[]"
        }
      ],
      "payable": false,
      "stateMutability": "view",
      "type": "function"
    }
  ],
  "bytecode": "0x608060405234801561001057600080fd5b506040516020806109c683398101806040528101908080519060200190929190505050806000806101000a81548173ffffffffffffffffffffffffffffffffffffffff021916908373ffffffffffffffffffffffffffffffffffffffff16021790555050610943806100836000396000f300608060405260043610610078576000357c0100000000000000000000000000000000000000000000000000000000900463ffffffff16806346a667831461007d57806388092237146101335780638e93baeb1461014a5780639f7258a9146101e2578063f140ff8a14610265578063f29710701461030b575b600080fd5b34801561008957600080fd5b506100be600480360381019080803573ffffffffffffffffffffffffffffffffffffffff16906020019092919050505061038e565b604051808373ffffffffffffffffffffffffffffffffffffffff1673ffffffffffffffffffffffffffffffffffffffff1681526020018273ffffffffffffffffffffffffffffffffffffffff1673ffffffffffffffffffffffffffffffffffffffff1681526020019250505060405180910390f35b34801561013f57600080fd5b506101486103f2565b005b34801561015657600080fd5b5061018b600480360381019080803573ffffffffffffffffffffffffffffffffffffffff1690602001909291905050506104d7565b6040518080602001828103825283818151815260200191508051906020019060200280838360005b838110156101ce5780820151818401526020810190506101b3565b505050509050019250505060405180910390f35b3480156101ee57600080fd5b50610223600480360381019080803573ffffffffffffffffffffffffffffffffffffffff169060200190929190505050610575565b604051808273ffffffffffffffffffffffffffffffffffffffff1673ffffffffffffffffffffffffffffffffffffffff16815260200191505060405180910390f35b34801561027157600080fd5b50610309600480360381019080803573ffffffffffffffffffffffffffffffffffffffff169060200190929190803573ffffffffffffffffffffffffffffffffffffffff169060200190929190803590602001908201803590602001908080602002602001604051908101604052809392919081815260200183836020028082843782019150505050505091929192905050506105e1565b005b34801561031757600080fd5b5061034c600480360381019080803573ffffffffffffffffffffffffffffffffffffffff169060200190929190505050610812565b604051808273ffffffffffffffffffffffffffffffffffffffff1673ffffffffffffffffffffffffffffffffffffffff16815260200191505060405180910390f35b60056020528060005260406000206000915090508060000160009054906101000a900473ffffffffffffffffffffffffffffffffffffffff16908060010160009054906101000a900473ffffffffffffffffffffffffffffffffffffffff16905082565b600560003373ffffffffffffffffffffffffffffffffffffffff1673ffffffffffffffffffffffffffffffffffffffff168152602001908152602001600020600080820160006101000a81549073ffffffffffffffffffffffffffffffffffffffff02191690556001820160006101000a81549073ffffffffffffffffffffffffffffffffffffffff0219169055600282016000610490919061087e565b50503373ffffffffffffffffffffffffffffffffffffffff167fe4747e46c7c1968ba3b3bd70e5ff25a7711b5c03e52efc15f4823d21e04d05cf60405160405180910390a2565b6060600560008373ffffffffffffffffffffffffffffffffffffffff1673ffffffffffffffffffffffffffffffffffffffff16815260200190815260200160002060020180548060200260200160405190810160405280929190818152602001828054801561056957602002820191906000526020600020905b81546000191681526020019060010190808311610551575b50505050509050919050565b6000600560008373ffffffffffffffffffffffffffffffffffffffff1673ffffffffffffffffffffffffffffffffffffffff16815260200190815260200160002060000160009054906101000a900473ffffffffffffffffffffffffffffffffffffffff169050919050565b6060604051908101604052808473ffffffffffffffffffffffffffffffffffffffff1681526020018373ffffffffffffffffffffffffffffffffffffffff16815260200182815250600560003373ffffffffffffffffffffffffffffffffffffffff1673ffffffffffffffffffffffffffffffffffffffff16815260200190815260200160002060008201518160000160006101000a81548173ffffffffffffffffffffffffffffffffffffffff021916908373ffffffffffffffffffffffffffffffffffffffff16021790555060208201518160010160006101000a81548173ffffffffffffffffffffffffffffffffffffffff021916908373ffffffffffffffffffffffffffffffffffffffff160217905550604082015181600201908051906020019061071292919061089f565b509050503373ffffffffffffffffffffffffffffffffffffffff167f77ecb2848728fb9c0d19915684e920dc2cffaa5a43df326f3d841f68cde2da25848484604051808473ffffffffffffffffffffffffffffffffffffffff1673ffffffffffffffffffffffffffffffffffffffff1681526020018373ffffffffffffffffffffffffffffffffffffffff1673ffffffffffffffffffffffffffffffffffffffff16815260200180602001828103825283818151815260200191508051906020019060200280838360005b838110156107f85780820151818401526020810190506107dd565b5050505090500194505050505060405180910390a2505050565b6000600560008373ffffffffffffffffffffffffffffffffffffffff1673ffffffffffffffffffffffffffffffffffffffff16815260200190815260200160002060010160009054906101000a900473ffffffffffffffffffffffffffffffffffffffff169050919050565b508054600082559060005260206000209081019061089c91906108f2565b50565b8280548282559060005260206000209081019282156108e1579160200282015b828111156108e05782518290600019169055916020019190600101906108bf565b5b5090506108ee91906108f2565b5090565b61091491905b808211156109105760008160009055506001016108f8565b5090565b905600a165627a7a72305820b05387a2cd5233d1bb5876023f376975cff3534a7ec04ce89ffd03a7612c30ce0029",
  "source": "pragma solidity ^0.4.23;\n\ncontract Drone{\n\n    address WorldContract;\n    address parent1;\n    address parent2;\n    bytes32[] dna;\n    uint fitness;\n\n    event NewDrone(address indexed drone, address parent1, address parent2, bytes32[] dna);\n    event DroneDies(address indexed drone);\n\n    struct DroneStruct{\n        address parent1;\n        address parent2;\n        bytes32[] dna;\n    }\n    mapping(address => DroneStruct) public idToDrone;\n\n\n    constructor(address _WorldContract) public {\n        WorldContract = _WorldContract;\n    }\n\n    function createDrone(address _parent1, address _parent2, bytes32[] _dna) public {\n        idToDrone[msg.sender] = DroneStruct(_parent1, _parent2, _dna);\n        emit NewDrone(msg.sender, _parent1, _parent2, _dna);\n    }\n    \n    function killDrone() public {\n        delete idToDrone[msg.sender];\n        emit DroneDies(msg.sender);\n    }\n\n    function getParent1(address _drone) public view returns(address){\n        return idToDrone[_drone].parent1;\n    }\n\n    function getParent2(address _drone) public view returns(address){\n        return idToDrone[_drone].parent2;\n    }\n\n    function getDna(address _drone) public view returns(bytes32[]){\n        return idToDrone[_drone].dna;\n    }\n}",
  "sourcePath": "/home/axel/Documents/work/Kryha/odyssey/backend/ethereum/contracts/Drone.sol",
  "compiler": {
    "name": "solc",
    "version": "0.4.25+commit.59dbf8f1.Emscripten.clang"
  },
  "schemaVersion": "2.0.2",
  "updatedAt": "2019-04-12T14:04:38.762Z"
}