{
  "contractName": "World",
  "abi": [
    {
      "constant": true,
      "inputs": [],
      "name": "WorldAir",
      "outputs": [
        {
          "name": "",
          "type": "int256"
        }
      ],
      "payable": false,
      "stateMutability": "view",
      "type": "function",
      "signature": "0x1f44479f"
    },
    {
      "constant": true,
      "inputs": [],
      "name": "WorldWater",
      "outputs": [
        {
          "name": "",
          "type": "int256"
        }
      ],
      "payable": false,
      "stateMutability": "view",
      "type": "function",
      "signature": "0x29bb5af3"
    },
    {
      "constant": true,
      "inputs": [
        {
          "name": "",
          "type": "uint256"
        }
      ],
      "name": "getWorldState",
      "outputs": [
        {
          "name": "air",
          "type": "int256"
        },
        {
          "name": "resources",
          "type": "int256"
        },
        {
          "name": "nature",
          "type": "int256"
        },
        {
          "name": "water",
          "type": "int256"
        },
        {
          "name": "exists",
          "type": "bool"
        }
      ],
      "payable": false,
      "stateMutability": "view",
      "type": "function",
      "signature": "0x2b1e956e"
    },
    {
      "constant": true,
      "inputs": [],
      "name": "WorldNature",
      "outputs": [
        {
          "name": "",
          "type": "int256"
        }
      ],
      "payable": false,
      "stateMutability": "view",
      "type": "function",
      "signature": "0x560be8fa"
    },
    {
      "constant": true,
      "inputs": [],
      "name": "WorldResources",
      "outputs": [
        {
          "name": "",
          "type": "int256"
        }
      ],
      "payable": false,
      "stateMutability": "view",
      "type": "function",
      "signature": "0xc3e906d1"
    },
    {
      "inputs": [
        {
          "name": "_xSize",
          "type": "uint256"
        },
        {
          "name": "_ySize",
          "type": "uint256"
        }
      ],
      "payable": false,
      "stateMutability": "nonpayable",
      "type": "constructor",
      "signature": "constructor"
    },
    {
      "anonymous": false,
      "inputs": [
        {
          "indexed": false,
          "name": "x",
          "type": "uint256"
        },
        {
          "indexed": false,
          "name": "y",
          "type": "uint256"
        },
        {
          "indexed": false,
          "name": "air",
          "type": "int256"
        },
        {
          "indexed": false,
          "name": "resources",
          "type": "int256"
        },
        {
          "indexed": false,
          "name": "nature",
          "type": "int256"
        },
        {
          "indexed": false,
          "name": "water",
          "type": "int256"
        }
      ],
      "name": "E_FoundResources",
      "type": "event",
      "signature": "0x82eba7fb6c95e11e632a0b469dbc1447a25062f54d76dd58bbd84d7e59d04303"
    },
    {
      "anonymous": false,
      "inputs": [
        {
          "indexed": false,
          "name": "x",
          "type": "uint256"
        },
        {
          "indexed": false,
          "name": "y",
          "type": "uint256"
        },
        {
          "indexed": false,
          "name": "air",
          "type": "int256"
        },
        {
          "indexed": false,
          "name": "resources",
          "type": "int256"
        },
        {
          "indexed": false,
          "name": "nature",
          "type": "int256"
        },
        {
          "indexed": false,
          "name": "water",
          "type": "int256"
        }
      ],
      "name": "E_MineResources",
      "type": "event",
      "signature": "0x330ec9d68ab3eb3dc21e6b230892eb83d82a4a6090ac4c1218a9957773309113"
    },
    {
      "constant": false,
      "inputs": [
        {
          "name": "_x",
          "type": "uint256"
        },
        {
          "name": "_y",
          "type": "uint256"
        },
        {
          "name": "_air",
          "type": "int256"
        },
        {
          "name": "_resources",
          "type": "int256"
        },
        {
          "name": "_nature",
          "type": "int256"
        },
        {
          "name": "_water",
          "type": "int256"
        }
      ],
      "name": "addWorldState",
      "outputs": [],
      "payable": false,
      "stateMutability": "nonpayable",
      "type": "function",
      "signature": "0xfe6f31ca"
    },
    {
      "constant": false,
      "inputs": [
        {
          "name": "_x",
          "type": "uint256"
        },
        {
          "name": "_y",
          "type": "uint256"
        },
        {
          "name": "_air",
          "type": "int256"
        },
        {
          "name": "_resources",
          "type": "int256"
        },
        {
          "name": "_nature",
          "type": "int256"
        },
        {
          "name": "_water",
          "type": "int256"
        }
      ],
      "name": "mineResources",
      "outputs": [],
      "payable": false,
      "stateMutability": "nonpayable",
      "type": "function",
      "signature": "0xd9443810"
    }
  ],
  "bytecode": "0x608060405234801561001057600080fd5b506040516040806108988339810180604052604081101561003057600080fd5b81019080805190602001909291908051906020019092919050505081600081905550806001819055506000600281905550600060038190555060006004819055506000600581905550505061080e8061008a6000396000f3fe608060405260043610610083576000357c0100000000000000000000000000000000000000000000000000000000900463ffffffff1680631f44479f1461008857806329bb5af3146100b35780632b1e956e146100de578063560be8fa1461014d578063c3e906d114610178578063d9443810146101a3578063fe6f31ca14610210575b600080fd5b34801561009457600080fd5b5061009d61027d565b6040518082815260200191505060405180910390f35b3480156100bf57600080fd5b506100c8610283565b6040518082815260200191505060405180910390f35b3480156100ea57600080fd5b506101176004803603602081101561010157600080fd5b8101908080359060200190929190505050610289565b60405180868152602001858152602001848152602001838152602001821515151581526020019550505050505060405180910390f35b34801561015957600080fd5b506101626102cc565b6040518082815260200191505060405180910390f35b34801561018457600080fd5b5061018d6102d2565b6040518082815260200191505060405180910390f35b3480156101af57600080fd5b5061020e600480360360c08110156101c657600080fd5b810190808035906020019092919080359060200190929190803590602001909291908035906020019092919080359060200190929190803590602001909291905050506102d8565b005b34801561021c57600080fd5b5061027b600480360360c081101561023357600080fd5b8101908080359060200190929190803590602001909291908035906020019092919080359060200190929190803590602001909291908035906020019092919050505061068d565b005b60025481565b60055481565b60066020528060005260406000206000915090508060000154908060010154908060020154908060030154908060040160009054906101000a900460ff16905085565b60045481565b60035481565b60006102e487876107cc565b90506000600660008381526020019081526020016000209050600115158160040160009054906101000a900460ff16151514151561038a576040517f08c379a00000000000000000000000000000000000000000000000000000000081526004018080602001828103825260168152602001807f4e6f20576f726c64537461746520697320666f756e640000000000000000000081525060200191505060405180910390fd5b600086826000015401905060008113151561040d576040517f08c379a000000000000000000000000000000000000000000000000000000000815260040180806020018281038252601b8152602001807f4166746572206d696e696e67206e6f7420656e6f75676820616972000000000081525060200191505060405180910390fd5b60008683600101540190506000811315156104b6576040517f08c379a00000000000000000000000000000000000000000000000000000000081526004018080602001828103825260218152602001807f4166746572206d696e696e67206e6f7420656e6f756768207265736f7572636581526020017f730000000000000000000000000000000000000000000000000000000000000081525060400191505060405180910390fd5b6000868460020154019050600081131515610539576040517f08c379a000000000000000000000000000000000000000000000000000000000815260040180806020018281038252601e8152602001807f4166746572206d696e696e67206e6f7420656e6f756768206e6174757265000081525060200191505060405180910390fd5b60008685600301540190506000811315156105bc576040517f08c379a000000000000000000000000000000000000000000000000000000000815260040180806020018281038252601d8152602001807f4166746572206d696e696e67206e6f7420656e6f75676820776174657200000081525060200191505060405180910390fd5b838560000181905550828560010181905550818560020181905550808560030181905550836002600082825401925050819055508260036000828254019250508190555081600460008282540192505081905550806005600082825401925050819055507f330ec9d68ab3eb3dc21e6b230892eb83d82a4a6090ac4c1218a99577733091138c8c8c8c8c8c60405180878152602001868152602001858152602001848152602001838152602001828152602001965050505050505060405180910390a1505050505050505050505050565b600061069987876107cc565b905060a06040519081016040528086815260200185815260200184815260200183815260200160011515815250600660008381526020019081526020016000206000820151816000015560208201518160010155604082015181600201556060820151816003015560808201518160040160006101000a81548160ff021916908315150217905550905050846002600082825401925050819055508360036000828254019250508190555082600460008282540192505081905550816005600082825401925050819055507f82eba7fb6c95e11e632a0b469dbc1447a25062f54d76dd58bbd84d7e59d0430387878787878760405180878152602001868152602001858152602001848152602001838152602001828152602001965050505050505060405180910390a150505050505050565b600080826001548502019050809150509291505056fea165627a7a72305820d73b6e54d58aec84626f4cf29a2f06f5d90bf493152ccdc3b7a2603a9320894e0029",
  "source": "pragma solidity ^0.5.0;\n\n\ncontract World {\n\n    uint xSize;\n    uint ySize;\n\n    int public WorldAir;\n    int public WorldResources;\n    int public WorldNature;\n    int public WorldWater;\n\n    event E_FoundResources(uint x, uint y, int air, int resources, int nature, int water);\n    event E_MineResources(uint x, uint y, int air, int resources, int nature, int water);\n\n    struct WorldState{\n        int air;\n        int resources;\n        int nature;\n        int water;\n        bool exists;\n    }\n\n    mapping (uint => WorldState) public getWorldState;\n\n    constructor(uint _xSize, uint _ySize) public{\n        xSize = _xSize;\n        ySize = _ySize;\n        WorldAir = 0;\n        WorldResources = 0;\n        WorldNature = 0;\n        WorldWater = 0;\n    }\n\n    function transformCoordinates(uint _x, uint _y) internal view returns (uint){\n        uint place = _x * ySize + _y;\n        return place;\n    }\n\n    function addWorldState( uint _x, uint _y, int _air, int _resources, int _nature, int _water) external {\n        uint place = transformCoordinates(_x, _y);\n        getWorldState[place] = WorldState(_air, _resources, _nature, _water, true);\n        WorldAir += _air;\n        WorldResources += _resources;\n        WorldNature += _nature;\n        WorldWater += _water;\n        emit E_FoundResources(_x, _y, _air, _resources, _nature, _water);\n    }\n\n    function mineResources( uint _x, uint _y, int _air, int _resources, int _nature, int _water) external {\n        uint place = transformCoordinates(_x, _y);\n        WorldState storage worldState = getWorldState[place];\n        require(worldState.exists == true, \"No WorldState is found\");\n        int newAir = worldState.air + _air;\n        require(newAir > 0, \"After mining not enough air\");\n        int newResources = worldState.resources + _resources;\n        require(newResources > 0, \"After mining not enough resources\");\n        int newNature = worldState.nature + _nature;\n        require(newNature > 0, \"After mining not enough nature\");\n        int newWater = worldState.water + _water;\n        require(newWater > 0, \"After mining not enough water\");\n        worldState.air = newAir;\n        worldState.resources = newResources;\n        worldState.nature = newNature;\n        worldState.water = newWater;\n        WorldAir += newAir;\n        WorldResources += newResources;\n        WorldNature += newNature;\n        WorldWater += newWater;\n        emit E_MineResources(_x, _y, _air, _resources, _nature, _water);\n    }\n\n}",
  "sourcePath": "/home/axel/Documents/work/Kryha/odyssey/backend/ethereum/contracts/World.sol",
  "compiler": {
    "name": "solc",
    "version": "0.5.0+commit.1d4f565a.Emscripten.clang"
  },
  "schemaVersion": "3.0.6",
  "updatedAt": "2019-04-12T18:20:13.682Z",
  "devdoc": {
    "methods": {}
  },
  "userdoc": {
    "methods": {}
  }
}