{
  "contractName": "World",
  "abi": [
    {
      "constant": true,
      "inputs": [
        {
          "name": "",
          "type": "uint256"
        }
      ],
      "name": "getWorldState",
      "outputs": [
        {
          "name": "air",
          "type": "int256"
        },
        {
          "name": "resources",
          "type": "int256"
        },
        {
          "name": "nature",
          "type": "int256"
        },
        {
          "name": "water",
          "type": "int256"
        },
        {
          "name": "exists",
          "type": "bool"
        }
      ],
      "payable": false,
      "stateMutability": "view",
      "type": "function"
    },
    {
      "inputs": [
        {
          "name": "_xSize",
          "type": "uint256"
        },
        {
          "name": "_ySize",
          "type": "uint256"
        }
      ],
      "payable": false,
      "stateMutability": "nonpayable",
      "type": "constructor"
    },
    {
      "anonymous": false,
      "inputs": [
        {
          "indexed": false,
          "name": "x",
          "type": "uint256"
        },
        {
          "indexed": false,
          "name": "y",
          "type": "uint256"
        },
        {
          "indexed": false,
          "name": "air",
          "type": "int256"
        },
        {
          "indexed": false,
          "name": "resources",
          "type": "int256"
        },
        {
          "indexed": false,
          "name": "nature",
          "type": "int256"
        },
        {
          "indexed": false,
          "name": "water",
          "type": "int256"
        }
      ],
      "name": "E_FoundResources",
      "type": "event"
    },
    {
      "anonymous": false,
      "inputs": [
        {
          "indexed": false,
          "name": "x",
          "type": "uint256"
        },
        {
          "indexed": false,
          "name": "y",
          "type": "uint256"
        },
        {
          "indexed": false,
          "name": "air",
          "type": "int256"
        },
        {
          "indexed": false,
          "name": "resources",
          "type": "int256"
        },
        {
          "indexed": false,
          "name": "nature",
          "type": "int256"
        },
        {
          "indexed": false,
          "name": "water",
          "type": "int256"
        }
      ],
      "name": "E_MineResources",
      "type": "event"
    },
    {
      "constant": false,
      "inputs": [
        {
          "name": "_x",
          "type": "uint256"
        },
        {
          "name": "_y",
          "type": "uint256"
        },
        {
          "name": "_air",
          "type": "int256"
        },
        {
          "name": "_resources",
          "type": "int256"
        },
        {
          "name": "_nature",
          "type": "int256"
        },
        {
          "name": "_water",
          "type": "int256"
        }
      ],
      "name": "addWorldState",
      "outputs": [],
      "payable": false,
      "stateMutability": "nonpayable",
      "type": "function"
    },
    {
      "constant": false,
      "inputs": [
        {
          "name": "_x",
          "type": "uint256"
        },
        {
          "name": "_y",
          "type": "uint256"
        },
        {
          "name": "_air",
          "type": "int256"
        },
        {
          "name": "_resources",
          "type": "int256"
        },
        {
          "name": "_nature",
          "type": "int256"
        },
        {
          "name": "_water",
          "type": "int256"
        }
      ],
      "name": "mineResources",
      "outputs": [],
      "payable": false,
      "stateMutability": "nonpayable",
      "type": "function"
    }
  ],
  "bytecode": "0x608060405234801561001057600080fd5b5060405160408061071d8339810180604052810190808051906020019092919080519060200190929190505050816000819055508060018190555050506106c18061005c6000396000f300608060405260043610610057576000357c0100000000000000000000000000000000000000000000000000000000900463ffffffff1680632b1e956e1461005c578063d9443810146100bd578063fe6f31ca1461011c575b600080fd5b34801561006857600080fd5b506100876004803603810190808035906020019092919050505061017b565b60405180868152602001858152602001848152602001838152602001821515151581526020019550505050505060405180910390f35b3480156100c957600080fd5b5061011a6004803603810190808035906020019092919080359060200190929190803590602001909291908035906020019092919080359060200190929190803590602001909291905050506101be565b005b34801561012857600080fd5b50610179600480360381019080803590602001909291908035906020019092919080359060200190929190803590602001909291908035906020019092919080359060200190929190505050610530565b005b60026020528060005260406000206000915090508060000154908060010154908060020154908060030154908060040160009054906101000a900460ff16905085565b6000806000806000806101d18c8c610610565b9550600260008781526020019081526020016000209450600115158560040160009054906101000a900460ff161515141515610275576040517f08c379a00000000000000000000000000000000000000000000000000000000081526004018080602001828103825260168152602001807f4e6f20576f726c64537461746520697320666f756e640000000000000000000081525060200191505060405180910390fd5b8985600001540193506000841315156102f6576040517f08c379a000000000000000000000000000000000000000000000000000000000815260040180806020018281038252601b8152602001807f4166746572206d696e696e67206e6f7420656e6f75676820616972000000000081525060200191505060405180910390fd5b88856001015401925060008313151561039d576040517f08c379a00000000000000000000000000000000000000000000000000000000081526004018080602001828103825260218152602001807f4166746572206d696e696e67206e6f7420656e6f756768207265736f7572636581526020017f730000000000000000000000000000000000000000000000000000000000000081525060400191505060405180910390fd5b87856002015401915060008213151561041e576040517f08c379a000000000000000000000000000000000000000000000000000000000815260040180806020018281038252601e8152602001807f4166746572206d696e696e67206e6f7420656e6f756768206e6174757265000081525060200191505060405180910390fd5b86856003015401905060008113151561049f576040517f08c379a000000000000000000000000000000000000000000000000000000000815260040180806020018281038252601d8152602001807f4166746572206d696e696e67206e6f7420656e6f75676820776174657200000081525060200191505060405180910390fd5b8385600001819055508285600101819055508185600201819055508085600301819055507f330ec9d68ab3eb3dc21e6b230892eb83d82a4a6090ac4c1218a99577733091138c8c8c8c8c8c60405180878152602001868152602001858152602001848152602001838152602001828152602001965050505050505060405180910390a1505050505050505050505050565b600061053c8787610610565b905061054a85858585610626565b600260008381526020019081526020016000206000820151816000015560208201518160010155604082015181600201556060820151816003015560808201518160040160006101000a81548160ff0219169083151502179055509050507f82eba7fb6c95e11e632a0b469dbc1447a25062f54d76dd58bbd84d7e59d0430387878787878760405180878152602001868152602001858152602001848152602001838152602001828152602001965050505050505060405180910390a150505050505050565b6000808260015485020190508091505092915050565b61062e610663565b60a060405190810160405280868152602001858152602001848152602001838152602001600115158152509050949350505050565b60a0604051908101604052806000815260200160008152602001600081526020016000815260200160001515815250905600a165627a7a72305820cc3d76710441ee08e46e163602dd1460f7ad4347e2c65d2809ad5089edaec4bd0029",
  "source": "pragma solidity ^0.4.23;\n\n\ncontract World {\n\n    uint xSize;\n    uint ySize;\n\n    event E_FoundResources(uint x, uint y, int air, int resources, int nature, int water);\n    event E_MineResources(uint x, uint y, int air, int resources, int nature, int water);\n\n    struct WorldState{\n        int air;\n        int resources;\n        int nature;\n        int water;\n        bool exists;\n    }\n\n    mapping (uint => WorldState) public getWorldState;\n\n    constructor(uint _xSize, uint _ySize) public{\n        xSize = _xSize;\n        ySize = _ySize;\n    }\n\n    function createWorldState(int _air, int _resources, int _nature, int _water) internal pure returns(WorldState){\n        return  WorldState(_air, _resources, _nature, _water, true);\n    }\n\n    function transformCoordinates(uint _x, uint _y) internal view returns (uint){\n        uint place = _x * ySize + _y;\n        return place;\n    }\n\n    function addWorldState( uint _x, uint _y, int _air, int _resources, int _nature, int _water) external {\n        uint place = transformCoordinates(_x, _y);\n        getWorldState[place] = createWorldState(_air, _resources, _nature, _water);\n        emit E_FoundResources(_x, _y, _air, _resources, _nature, _water);\n    }\n\n    function mineResources( uint _x, uint _y, int _air, int _resources, int _nature, int _water) external {\n        uint place = transformCoordinates(_x, _y);\n        WorldState storage worldState = getWorldState[place];\n        require(worldState.exists == true, \"No WorldState is found\");\n        int newAir = worldState.air + _air;\n        require(newAir > 0, \"After mining not enough air\");\n        int newResources = worldState.resources + _resources;\n        require(newResources > 0, \"After mining not enough resources\");\n        int newNature = worldState.nature + _nature;\n        require(newNature > 0, \"After mining not enough nature\");\n        int newWater = worldState.water + _water;\n        require(newWater > 0, \"After mining not enough water\");\n        worldState.air = newAir;\n        worldState.resources = newResources;\n        worldState.nature = newNature;\n        worldState.water = newWater;\n        emit E_MineResources(_x, _y, _air, _resources, _nature, _water);\n    }\n\n}",
  "sourcePath": "/home/axel/Documents/work/Kryha/odyssey/backend/ethereum/contracts/World.sol",
  "compiler": {
    "name": "solc",
    "version": "0.4.25+commit.59dbf8f1.Emscripten.clang"
  },
  "schemaVersion": "2.0.2",
  "updatedAt": "2019-04-12T14:04:38.763Z"
}